:04000000803119280A
:1000060008007E1480310B1F09280A2817282100B2
:10001600911C0E280F2817282000911C132814283D
:10002600172888319C2080317E10090080311B28DA
:100036004530840088308500E13086000030870036
:10004600083088313F2080315030840000308500F0
:100056001030883139208031E93084000030850045
:1000660007308831392080317E1020008531272DD8
:10007600200041088039C60046082100A000200063
:100086004135C60046082100A6002000C01F4C28A6
:100096004D284F282100261421002608031954282C
:1000A60055286628260A031D59285A286328003031
:1000B6002000C1000030C0000030BF000030BE008C
:1000C6002000C0176F2800302000C1000030C0009B
:1000D6000030BF000030BE0045088039C600460823
:1000E6002100A00620004535C60046082100A100D3
:1000F6002000C41F7F288028822821002114210087
:1001060021080319872888289928210A031D8C2885
:100116008D28962800302000C5000030C40000302D
:10012600C3000030C2002000C417A22800302000FF
:10013600C5000030C4000030C3000030C2002100FA
:1001460021080319A728A828AD282608031DAC28CE
:10015600AD28B72800302000C1000030C0000030B4
:10016600BF000030BE003D2B20003E08C6004608FA
:10017600B00044088931BE218031200031082100B9
:10018600AC00200030082100AB002B082000C60080
:10019600C701C801C90149082100A5002000480877
:1001A6002100A400200047082100A30020004608E3
:1001B6002100A2002C082000C600C701C801C90101
:1001C60049082100AA00200048082100A9002000B3
:1001D60047082100A800200046082100A7002000AB
:1001E6003F08C6004608B00043088931BE21803169
:1001F600200031082100AC00200030082100AB00AF
:100206002B082000C600C701C801C9014608210005
:10021600A207200047082100A33D2000480821002E
:10022600A43D200049082100A53D2C082000C60059
:10023600C701C801C90146082100A70720004708D1
:100246002100A83D200048082100A93D20004908BA
:100256002100AA3D20004008C6004608B00042081A
:100266008931BE218031200031082100AC002000F8
:1002760030082100AB002B082000C600C701C801CA
:10028600C90146082100A207200047082100A33D16
:10029600200048082100A43D200049082100A53D72
:1002A6002C082000C600C701C801C9014608210064
:1002B600A707200047082100A83D20004808210084
:1002C600A93D200049082100AA3D0830A235A30D0A
:1002D600A40DA50D890B692920003F08C600460814
:1002E600B00042088931BE2180312000310821004A
:1002F600AC00200030082100AB002B08A2072C0818
:10030600A33D0030A43DA53D20003E08C60046089A
:10031600B00043088931BE21803120003108210018
:10032600AC00200030082100AB002B08A2072C08E7
:10033600A33D0030A43DA53D0830A235A30DA40D74
:10034600A50D890BA02920003E08C6004608B0006E
:1003560042088931BE218031200031082100AC00DD
:10036600200030082100AB002B08A2072C08A33D73
:100376000030A43DA53D20003F08C6004608B00059
:1003860044088931BE218031200031082100AC00AB
:10039600200030082100AB002B08A7072C08A83D39
:1003A6000030A93DAA3D20004008C6004608B0001E
:1003B60043088931BE218031200031082100AC007C
:1003C600200030082100AB002B08A7072C08A83D09
:1003D6000030A93DAA3D20004008C6004608B000EE
:1003E60044088931BE218031200031082100AC004B
:1003F600200030082100AB002B082000C600210099
:100406002C082000C700C801C9010830C635C70D31
:10041600C80DC90D890B092A46082100A707200027
:1004260047082100A83D200048082100A93D2000DA
:1004360049082100AA3D22082000C6002100230801
:100446002000C700210024082000C800210025083C
:100456002000C9001830C936C80CC70CC60C890B59
:100466002E2A46082100A707200047082100A83D9C
:10047600200048082100A93D200049082100AA3D86
:100486000830A235A30DA40DA50D890B442A260814
:1004960021072000C600C701C70D4608823E21007D
:1004A600AB00FF302000473D2100AC00712A01302F
:1004B600A735A80DA90DAA0D890B5B2AA51F642ACD
:1004C600652A662A27140130A235A30DA40DA50DB1
:1004D600890B672AFF30AB07FF30AC3DA91F742A92
:1004E600752A5A2AA101A51F792A7A2A9F2AFF303E
:1004F60022052000C600FF30210023052000C7008A
:10050600FF30210024052000C8007F30210025058A
:100516002000C90049084804470446040319942AE0
:10052600952A992A2100A101A10A9F2A2100271CA8
:100536009D2A9E2A9F2A952A21080319A32AA42ABE
:10054600DA2A0130A7070030A83D0030A93D003067
:10055600AA3D2A1CAF2AB02ADA2A27082000C6009C
:10056600210028082000C700210029082000C80013
:1005760021002A082000C9000130CA00C937C80C6A
:10058600C70CC60CCA0BC12A49082100AA002000C4
:1005960048082100A900200047082100A8002000E3
:1005A60046082100A7000130AB070030AC3D2C08FF
:1005B600803A2000C60080304602031DE52AFF303F
:1005C60021002B02031CE82AE92AF32A7F302100A6
:1005D600AA008030A9000030A8000030A700282B10
:1005E60021002C08803A2000C60080304602031DF8
:1005F600FF2A013021002B020318022B032B0E2B9E
:1006060000302100AA000030A9000030A800003008
:10061600A700A001282B21002B082000C6004608B1
:100626002100A600FF30A705FF30A8057F30A905E9
:100636000030AA05261C202B212B222BA917263693
:100646002000C60046082100AA0020082000C60097
:1006560046082100AA042A082000C1002100290812
:100666002000C000210028082000BF002100270824
:100676002000BE0008002100340880392000CB008D
:100686004B082100B90034352000CB004B0821006F
:10069600C000B31F4F2B502B512B40144008031999
:1006A600552B562B662B400A031D5A2B5B2B632BAF
:1006B6000030B4000030B3000030B2000030B100AA
:1006C600B317B4016E2B0030B4000030B300003015
:1006D600B2000030B100300880392000CB004B0852
:1006E6002100B90630352000CB004B082100C1009F
:1006F600AF1F7E2B7F2B802B411441080319842BBF
:10070600852B952B410A031D892B8A2B922B0030B2
:10071600B0000030AF000030AE000030AD00AF17C3
:10072600B0019D2B0030B0000030AF000030AE00AD
:100736000030AD0030082F042E042D04031DA42B19
:10074600A52BC02B0030B4000030B3000030B2003F
:100756000030B1008030B3047F30B4043908200083
:10076600CB004B082100B4043408B0003308AF00B6
:100776003208AE003108AD00262D4008031DC42BFB
:10078600C52BCE2B0030B0000030AF000030AE00DD
:100796000030AD00262D40082000CB00CC014C08CF
:1007A600CE002100410820004B02CD00031CCE03E1
:1007B6004D087F3E2100BA00003020004E3D21004A
:1007C600BB003408B8003308B7003208B600310859
:1007D600B5000030B4000030B3000030B200003085
:1007E600B1000030BF000030BE000030BD00003058
:1007F600BC00C1013E2C41080319022C032C1D2C00
:100806000130B535B60DB70DB80D890B042C013086
:10081600B135B20DB30DB40D890B0B2CBF1F142CC3
:10082600152C162C31140130BC35BD0DBE0DBF0D77
:10083600890B172C30083802031D2B2C2F08370282
:10084600031D2B2C2E083602031D2B2C2D083502DA
:10085600031C2E2C2F2C382C3F172D08B5022E08E2
:10086600B63B2F08B73B3008B83B01302000CB0021
:100876004B082100C1071A304102031C432C442CAB
:10088600FE2B380837043604350403194B2C4C2C40
:10089600652C3C14652C0130B135B20DB30DB40D89
:1008A600890B4F2CBF1F582C592C5A2C3114013050
:1008B600BC35BD0DBE0DBF0D890B5B2CFF30BA07D5
:1008C600FF30BB3DB31F682C692C4E2CC101BF1FE6
:1008D6006D2C6E2C932CFF303C052000CB00FF3096
:1008E60021003D052000CC00FF3021003E05200000
:1008F600CD007F3021003F052000CE004E084D047C
:100906004C044B040319882C892C8D2C2100C10121
:10091600C10A932C2100311C912C922C932C892CEA
:1009260041080319972C982CCE2C0130B1070030C2
:10093600B23D0030B33D0030B43D341CA32CA42C92
:10094600CE2C31082000CB00210032082000CC003C
:10095600210033082000CD00210034082000CE00FD
:100966000130CF00CE37CD0CCC0CCB0CCF0BB52C39
:100976004E082100B40020004D082100B3002000DD
:100986004C082100B20020004B082100B1000130C4
:10099600BA070030BB3D3B08803A2000CB008030D0
:1009A6004B02031DD92CFF3021003A02031CDC2C1C
:1009B600DD2CEA2CFF302100BA000030BB000030ED
:1009C600B4000030B3000030B2000030B1002100A6
:1009D6003B08803A2000CB0080304B02031DF62CEA
:1009E600013021003A020318F92CFA2C062D2100B9
:1009F600BA01BB010030B4000030B3000030B200D1
:100A06000030B100B90121003A082000CB004B08A4
:100A16002100C000401C102D112D132DB317192DC8
:100A26007F302000CB004B082100B3054036200064
:100A3600CB004B082100B40039082000CB004B083E
:100A46002100B404B72B08008831F9208531003025
:100A56002000BE00BF0089315F21853120003F089C
:100A6600C1003E08C00089312B21853100302000AD
:100A7600BE00BF0089315F21853120003F08C100DB
:100A86003E08C00089311221853122008E120E10D7
:100A96008E100C118C1221006408DF006308DE0042
:100AA6006208DD006108DC006808DB006708DA0020
:100AB6006608D9006508D80058082000BE00210045
:100AC60059082000BF0021005A082000C00021005C
:100AD6005C082000C10021005D082000C200210042
:100AE6005E082000C3008A312C2285312100CD000A
:100AF6004D08E000003089319D2185310330210009
:100B0600CD004D082000BB0021006008893144213A
:100B1600853100302000BB00BC000130BD00003034
:100B2600BE00210060088F31532785318B170B17C4
:100B360005302100CE000F30CD00F130890BA12DFC
:100B4600CD0BA12DCE0BA12D003089319D218531F4
:100B5600200031082100D500200030082100D400F3
:100B660054082000B000210055082000B100B20151
:100B7600B30100308E31A626853120003308C5002A
:100B86003208C4003108C3003008C2004030C1003A
:100B9600A030C0000030BF000030BE0080313B20D6
:100BA6008531200041082100B400200040082100C2
:100BB600B30020003F082100B20020003E082100BB
:100BC600B1004430B0007F30AF00C030AE0000301E
:100BD600AD0083313E23853121003008D2002F0835
:100BE600D1002E08D0002D08CF0052082000C500E5
:100BF600210051082000C400210050082000C30035
:100C060021004F082000C2004230C100C830C00099
:100C16000030BF000030BE0080313B20853120000F
:100C260041082100C500200040082100C400200022
:100C36003F082100C30020003E082100C2008E317B
:100C46003126853121004308D7004208D6000130FD
:100C560057022D3003195602031C322E342E013052
:100C6600352E0030CD004D08D300013057028730B5
:100C760003195602031C402E412E522E6008860090
:100C860087010108031D482E492E522E2000B0016F
:100C9600B00A210060088931E2218531972E0030A3
:100CA60057026E300319560203185A2E5B2E6B2E0E
:100CB6006008860087010108031D622E632E6B2ED5
:100CC6002000B001210060088931E2218531972E8C
:100CD60060088600870101080319722E732E972E6D
:100CE60000305702653003195602031C7B2E7C2EFA
:100CF600972E013057027C30031956020318842EB2
:100D0600852E972E00302000BB00BC000130BD00B0
:100D16000030BE00210060088F3153278531210045
:100D2600600888316C20853120000E1A9B2E9C2E7F
:100D36009B2D2B30C4000930C5001230C600093087
:100D4600C700C8010030C900CA004630CB000030D9
:100D5600CC00D030CD000730CE008631C12685319B
:100D660021005308CD004D082000B0002100600886
:100D76008931E22185319B2D8031192832302000BE
:100D8600B6000030B7004E08B9004D08B8008B31E8
:100D96005D238631200037082100A5002000360893
:100DA6002100A40020004C08BF004B08BE0089317A
:100DB6005F21863120003E082100A00020003F0868
:100DC6002100A10020004A08BF004908BE00893161
:100DD6005F21863120003E0821002002A600200067
:100DE6003F082100213BA70025082000B70021006D
:100DF60024082000B600210027082000B9002100A1
:100E060026082000B8008B315D2386312000370884
:100E16002100A300200036082100A20020004A0875
:100E2600BF004908BE0089315F21863120003F0896
:100E36002100AD0020003E082100AC00200048083B
:100E4600031D262F272F2F2F47082100AF00200034
:100E560046082100AE00362F45082100AF002000CD
:100E660044082100AE0020004808031D3B2F3C2FFC
:100E7600442F45082100A900200044082100A800AD
:100E86004B2F47082100A900200046082100A80092
:100E960000302000BE00BF0089315F21863120006E
:100EA6003F08C1003E08C000210029088A00280822
:100EB6000A00873121002D082000BF0021002C08E0
:100EC6002000BE0089315F21863120003F08C10025
:100ED6003E08C00021002F088A002E080A0087312C
:100EE6002100AA01AB019A2F03302100A10008308E
:100EF600A0007730890B7D2FA00B7D2FA10B7D2FB6
:100F060021002208AC072308AD3D2D082000C100B2
:100F160021002C082000C00021002F088A002E087E
:100F26000A00873132302100AA070030AB3D20008D
:100F36004E0821002B02031DA42F20004D0821007E
:100F46002A02031CA72FA82F772F08002000B6011E
:100F5600B31FAE2FAF2FB62FB209B309B20A0319CA
:100F6600B30AB601B60AB11FB92FBA2FBF2FB009FF
:100F7600B109B00A0319B10A300831040319C42FA4
:100F8600C52FEE2FB501B50AD12F0130B035B10D01
:100F9600890BC92F0130B4003408B507B11FD42F0F
:100FA600D52FC82F31083302031DDB2F300832023C
:100FB600031CDE2FDF2FE32F3008B2023108B33BCC
:100FC6000130B136B00C890BE42F0130B502031D98
:100FD600ED2FEE2FD52F36080319F22FF32FF82F0A
:100FE600B209B309B20A0319B30A3308B1003208C9
:0A0FF600B000080028009513080061
:10102C002800951708008831162088310800873170
:10103C00FD278831080020003108D5003008D40085
:10104C00080020003108D9003008D8000800200022
:10105C003108D7003008D600080020003108D30032
:10106C003008D2000800640080010131890B3A2855
:10107C000034FE0012001E00FE0B40280034203409
:10108C0005340C340034043402340C340034D030C5
:10109C0021009E009F019B019C0103309D000800D4
:1010AC0080302C0099007F309800C0309700CF30F2
:1010BC0025009E05080080302C009C007F309B0092
:1010CC00C0309A003F3025009E0508002000B0007B
:1010DC0088311D208831200030088600870181016D
:1010EC00080070302100990098012200960121001F
:1010FC001A1F812882287D28080020009E0120309C
:10110C009D009F01FF309B009A01901080309C0045
:10111C0008002000520853040319952896289B2890
:10112C0053088A0052080A008831080020009110E8
:10113C000130D0070030D13D00305102103003197E
:10114C005002031CAA28AB28B12888318F20883183
:10115C002000D001D10108007009F400720886004B
:10116C008701740881057308F400710ABE28F435F0
:10117C00890BBD2874087005F5007208860087017C
:10118C00750881040800280097012030960098010A
:10119C00FF30940093012000911021009114033032
:1011AC002000B0000030B100883133208831F0309D
:1011BC0028009500080020003009B4003208860091
:1011CC008701340881053308B400310AEE28B435A0
:1011DC00890BED2834083005B500320886008701EC
:1011EC003508810408008A318B22883188317720B8
:1011FC00883188314D20883188316120883188319F
:10120C00C920883188315620883188318320883133
:10121C008A3106228831080020004108C3004008AA
:10122C00C200C336C20CC336C20C42082C009B0051
:10123C00200040080339C2000530C235FF3E031DB3
:10124C00232942352C009A00080020004108C300D5
:10125C004008C200C336C20CC336C20C42082C0074
:10126C009800200040080339C2000530C235FF3E0B
:10127C00031D3C2942352C00970008002000BD00BE
:10128C003D088A31BD22893120003B08873EBC00D5
:10129C003C08B6003D088D317225893120003D088F
:1012AC008B312523893120003D088C317424893100
:1012BC00080064302000B6000030B7003F08B100D1
:1012CC003E08B000FF30B2000330B30089317D21FD
:1012DC00893120003108B9003008B8008B315D230A
:1012EC00893120003708BF003608BE0008002000F6
:1012FC00B401B501301C8329842988293208B4072C
:10130C003308B53D0130B235B30D890B8929013055
:10131C00B136B00C890B8E2930083104031D972986
:10132C00982980293508B1003408B0000800200045
:10133C00B3003308B200B20DB20D21001D0820001D
:10134C0032068339320621009D001D140D30890BA5
:10135C00AD29000021009D149D18B529B629B2298C
:10136C001C082000B10021001B082000B000080060
:10137C002000B800B401B5013008B200B301320846
:10138C00B6003308B700381CCC29CD29D129360832
:10139C00B4073708B53D0130B635B70D890BD229E6
:1013AC000310B80C3808031DDC29DD29C9293508C0
:1013BC00B1003408B00008002000B4003408B100BB
:1013CC003108DD003008031DEC29ED29F229FF302E
:1013DC00B200FF30B300F6290130B2000030B30088
:1013EC003208B1003108DC00883119208931013014
:1013FC002000B10034088600870131088100080004
:10140C00083023009F0080309D0024309E00403027
:10141C009B0003309C0000302000B0000030B10075
:10142C00883127208A3100302000B0000030B10014
:10143C0088312D208A3100302000B0000030B100FE
:10144C00883121208A312000DF01080020003E086D
:10145C002100EA0020003F082100EB00200040089A
:10146C002100EC00200041082100ED002000420882
:10147C002100EE00200043082100EF00E9010830B4
:10148C002000C4004408BB00E930893144218A3172
:10149C0088311D208A312A302000B0000C30B10078
:1014AC00883133208A31E9300800F6007608043E92
:1014BC0086008701403FF000413FF100423FF200BF
:1014CC00F301F30A8831B2208A31760A860087014B
:1014DC00403FF000413FF100423FF200F301F30ABC
:1014EC008831B2208A310530890B7A2A0000760ABD
:1014FC0086008701403FF000413FF100423FF2007F
:10150C00F3018831B2208A31080022008C018D0150
:10151C008E01133021008C0070308D001C308E0039
:10152C00CC3023008E0030308D0011308C00240024
:10153C008D018C018E012100951725008C018D01E8
:10154C008E01373026008C00F0308D00FF308E007D
:10155C003F3027008C00F0308D00FF308E001230B1
:10156C003D009F000E30A6000F30A70008002000A1
:10157C00B6003608043E86008701403FB000413F6C
:10158C00B100423FB200B301B30A8831E1208A3185
:10159C002000360A86008701403FB000413FB10071
:1015AC00423FB200B301B30A8831E1208A310530E1
:1015BC00890BDE2A00002000360A86008701403F96
:1015CC00B000413FB100423FB200B3018831E1208D
:1015DC008A310800F6007608043E86008701403FF9
:1015EC00F000413FF100423FF200F3018831B2209C
:1015FC008A310D30890B002B00007608043E8600E2
:10160C008701403FF000413FF100423FF200F301FF
:10161C00F30A8831B2208A310530890B132B000074
:10162C007608043E86008701403FF000413FF10000
:10163C00423FF200F3018831B2208A3108002000C9
:10164C00B6003608043E86008701403FB000413F9B
:10165C00B100423FB200B3018831E1208B310D3033
:10166C00890B362B000020003608043E86008701CB
:10167C00403FB000413FB100423FB200B301B30A5A
:10168C008831E1208B310530890B4A2B000020007A
:10169C003608043E86008701403FB000413FB10050
:1016AC00423FB200B3018831E1208B3108002000A9
:1016BC00BC01BD01360837040319652B662B952B2D
:1016CC00BB01BB0A722B0130B635B70D890B6A2BE7
:1016DC000130BA003A08BB07B71F752B762B692B64
:1016EC000130BC35BD0D890B772B37083902031D32
:1016FC00812B36083802031C842B852B8A2B360849
:10170C00B8023708B93B3C140130B736B60C890B1C
:10171C008B2B0130BB02031D942B952B762B3D0894
:10172C00B7003C08B6000800F6007608043E8600B8
:10173C008701403FF000413FF100423FF200F301CE
:10174C008831B2208B310530890BAA2B0000760A28
:10175C0086008701403FF000413FF100423FF2001C
:10176C00F3018831B2208B310530890BBB2B000083
:10177C007608043E86008701403FF000413FF100AF
:10178C00423FF200F301F30A8831B2208B3105306D
:10179C00890BCE2B0000760A86008701403FF000B3
:1017AC00413FF100423FF200F301F30A8831B220CD
:1017BC008B31080073087204710470040319E72B51
:1017CC00E82B212CF901F90AF62B0130F035F10D3B
:1017DC00F20DF30D890BEC2B0130F8007808F907AA
:1017EC00F31FF92BFA2BEB2B73087702031D082C34
:1017FC0072087602031D082C71087502031D082C53
:10180C0070087402031C0B2C0C2C142C7008F402A2
:10181C007108F53B7208F63B7308F73B0130F33661
:10182C00F20CF10CF00C890B152C0130F902031D94
:10183C00202C212CFA2B7708F3007608F20075087F
:10184C00F1007408F00008000030F3000030F200E2
:10185C000030F1000C30F00020005E08A400A5015F
:10186C00A601A7012708F7002608F6002508F500B1
:10187C002408F4008B31E0238C317108850070084A
:10188C0084008435850D8435850D003084079030B7
:10189C00853D003F2000A800013FA900023FAA009F
:1018AC00033FAB002C30860087012808C03F290875
:1018BC00C13F2A08C23F2B08C33F2C30A400240888
:1018CC00FB000030FC00FD005D088D3118258C31CB
:1018DC0020005C08A4002408DE0708002000B600E5
:1018EC003608043E86008701403FB000413FB100FE
:1018FC00423FB200B3018831E1208C310530890BB5
:10190C00852C00002000360A86008701403FB0007D
:10191C00413FB100423FB200B3018831E1208C312C
:10192C000530890B972C000020003608043E8600F9
:10193C008701403FB000413FB100423FB200B301CC
:10194C00B30A8831E1208C310530890BAB2C0000B7
:10195C002000360A86008701403FB000413FB100AD
:10196C00423FB200B301B30A8831E1208C31080048
:10197C00FA00F801F9017A08043E86008701403F1D
:10198C00F000413FF100423FF200F3018831B220F8
:10199C008C31761CD22CD32CE22C7A0A860087014F
:1019AC00403FF000413FF100423FF200F301F30AE7
:1019BC008831B2208C31EF2C7A0A86008701403FA7
:1019CC00F000413FF100423FF200F3018831B220B8
:1019DC008C310830890BF02C0310F60C7A08043E7D
:1019EC0086008701403FF000413FF100423FF2008A
:1019FC00F301F30A8831B2208C310830890B042DA5
:101A0C000130F8070030F93D7908803AF700803052
:101A1C007702031D132D08307802031C162D172D89
:101A2C00C12C08002000A30023088A315B228D31D1
:101A3C0040302000A0002008F60023088C31BE2482
:101A4C008D31200023088A31F0228D3120002308AB
:101A5C008B319A238D31200023088A315B228D3102
:101A6C00C0302000A0002008F60023088C31BE24D2
:101A7C008D31200023088A31F0228D312000A10104
:101A8C00A2017B082000A0002108A00220088600EB
:101A9C008701433FF60023088C31BE248D31200092
:101AAC0023088A31F0228D3101302000A10700304B
:101ABC00A23D2208803AA00080302002031D682D30
:101ACC0004302102031C6B2D6C2D472D20002308A4
:101ADC008B319A238D3108002000BA00B801B9016E
:101AEC0020003A08043E86008701403FB000413F89
:101AFC00B100423FB200B3018831E1208D312000AA
:101B0C00361C892D8A2D992D3A0A86008701403F73
:101B1C00B000413FB100423FB200B301B30A88317B
:101B2C00E1208D31A62D3A0A86008701403FB00096
:101B3C00413FB100423FB200B3018831E1208D3109
:101B4C000830890BA72D03102000B60C3A08043E70
:101B5C0086008701403FB000413FB100423FB200D8
:101B6C00B301B30A8831E1208D310830890BBC2DCB
:101B7C0001302000B8070030B93D3908803AB70071
:101B8C0080303702031DCC2D08303802031CCF2DBA
:101B9C00D02D762D08002000B601B11FD62DD72DE3
:101BAC00DE2DB009B109B00A0319B10AB601B60AA3
:101BBC00B31FE12DE22DEB2DB209B309B20A0319C3
:101BCC00B30A0130B4003408B606B701B8013008C6
:101BDC0031040319F22DF32D222EB501B50AFF2D78
:101BEC000130B035B10D890BF72D0130B40034083C
:101BFC00B507B11F022E032EF62D0130B735B80DE7
:101C0C00890B042E31083302031D0E2E30083202CC
:101C1C00031C112E122E172E3008B2023108B33BC2
:101C2C0037140130B136B00C890B182E0130B502C7
:101C3C00031D212E222E032E36080319262E272EA5
:101C4C002C2EB709B809B70A0319B80A3808B1001D
:101C5C003708B000080003102100440D450DC600E4
:101C6C004608CC004C08031D3C2E3D2E462E003061
:101C7C00C5000030C4000030C3000030C200A52EE7
:101C8C004208C6004308C7004408C8004508C900FC
:101C9C001F30C936C80CC70CC60C890B4F2E460812
:101CAC00CA004A08CB00C417FF30C205FF30C30579
:101CBC00FF30C4050030C5059630CC02CC1F672E12
:101CCC00682E802E4C08803A973E03186E2E6F2E8D
:101CDC00702E3D2E0130C536C40CC30CC20C890BC2
:101CEC00712E0130C6004608CC07031D7E2E7F2EB8
:101CFC00702E952E20304C02031C852E862E902E95
:101D0C003D2E0130C235C30DC40DC50D890B882E77
:101D1C000130CC024C08031D942E952E872E4B08B7
:101D2C000319992E9A2EA52EC209C309C409C509F7
:101D3C00C20A0319C30A0319C40A0319C50A080005
:101D4C002000B80038080319AC2EAD2EC12EB31FDD
:101D5C00B02EB12EC12E3009BA003109BB003209A8
:101D6C00BC003309BD00BA0A0319BB0A0319BC0A2B
:101D7C000319BD0AC92E3308BD003208BC00310856
:101D8C00BB003008BA003308320431043004031DA0
:101D9C00D02ED12EDA2E0030B3000030B20000303D
:101DAC00B1000030B000522F9630B4003408B900A6
:101DBC00EA2E0130B4003408B9070130BD36BC0C32
:101DCC00BB0CBA0C890BE42EFE303D05031DEF2E27
:101DDC00F02EDF2E042F0130B4003408B907013087
:101DEC00BA070030BB3D0030BC3D0030BD3D01307A
:101DFC00BD36BC0CBB0CBA0C890BFE2EFF303D055E
:101E0C00031D092F0A2FF12E142F0130B9020130B6
:101E1C00BA35BB0DBC0DBD0D890B0E2FBC1B172F7E
:101E2C00182F1E2F0230390203181D2F1E2F0B2FB7
:101E3C003918212F222F2A2FFF30BA05FF30BB056E
:101E4C007F30BC05FF30BD050310B90C3908B40058
:101E5C00B501B601B7011830B435B50DB60DB70DD7
:101E6C00890B322F3408BA043508BB043608BC047D
:101E7C003708BD0438080319442F452F4A2FB31FC8
:101E8C00482F492F4A2FBD173D08B3003C08B2001C
:101E9C003B08B1003A08B00008002000C800C60199
:101EAC00C7010A302000B0000030B1003C08B3007C
:101EBC003B08B2008731A9278F31200031088500FB
:101ECC0030088400303084079030853D0008BF0016
:101EDC004608403E860087013F08810002304606D6
:101EEC004704031D7A2F7B2F862F3D083E040319D0
:101EFC00802F812F862F4608403E86008701811750
:101F0C000A30B0000030B1003C08B3003B08B2000E
:101F1C008D31D1258F3120003108BC003008BB0039
:101F2C000130C6070030C73D4708803ABF008030FB
:101F3C003F02031DA32F04304602031CA62FA72F1C
:101F4C00572F200048088A31BD228F3140302000A5
:101F5C00BF003F08B60048088D3172258F31200034
:101F6C0048088B3125238F31200048088C3174248C
:101F7C008F31200048088A31BD228F31C0302000BB
:101F8C00BF003F08B60048088D3172258F31200004
:101F9C0048088B3125238F312000C401C501200056
:101FAC004408033C403E860087010108BF003F08FF
:101FBC00B60048088D3172258F31200048088B31CE
:101FCC0025238F3101302000C4070030C53D450862
:101FDC00803ABF0080303F02031DF62F04304402CC
:101FEC00031CF92FFA2FD52F200048088C317424AC
:101FFC008F310800013400340034003400340134D3
:10200C000034003400340034013400340034003423
:10201C0000340134003400340034203400340034F3
:10202C0000341034003400340034083400340034EC
:10203C0008340034003408340034003408340034DC
:10204C0000340034043400340034003402340034DE
:10205C00003400343F3406345B344F3466346D3412
:10206C007D3407347F346F3477347C3439345E34C8
:0E207C007934713400340C34003400340034F4
:020000040001F9
:08000000FF3FFF3FFF3FFF3F00
:06000E00FC3FFF3F9F3F95
:00000001FF
